{
  "abi": [
    {
      "inputs": [
        {
          "internalType": "address",
          "name": "multisig_",
          "type": "address"
        },
        {
          "internalType": "address",
          "name": "burner_",
          "type": "address"
        },
        {
          "internalType": "address",
          "name": "dotContract_",
          "type": "address"
        },
        {
          "internalType": "address",
          "name": "dotFeedContract_",
          "type": "address"
        },
        {
          "internalType": "address",
          "name": "plpdContract_",
          "type": "address"
        },
        {
          "internalType": "address",
          "name": "whitelistContract_",
          "type": "address"
        }
      ],
      "stateMutability": "nonpayable",
      "type": "constructor"
    },
    {
      "anonymous": false,
      "inputs": [
        {
          "indexed": true,
          "internalType": "address",
          "name": "account",
          "type": "address"
        },
        {
          "indexed": false,
          "internalType": "uint256",
          "name": "burned",
          "type": "uint256"
        }
      ],
      "name": "Burned",
      "type": "event"
    },
    {
      "anonymous": false,
      "inputs": [
        {
          "indexed": true,
          "internalType": "address",
          "name": "account",
          "type": "address"
        },
        {
          "indexed": false,
          "internalType": "string",
          "name": "polkadotAddress",
          "type": "string"
        },
        {
          "indexed": false,
          "internalType": "uint256",
          "name": "allocation",
          "type": "uint256"
        }
      ],
      "name": "Locked",
      "type": "event"
    },
    {
      "inputs": [],
      "name": "_burnBlockNumber",
      "outputs": [
        {
          "internalType": "uint256",
          "name": "",
          "type": "uint256"
        }
      ],
      "stateMutability": "view",
      "type": "function"
    },
    {
      "inputs": [],
      "name": "_burner",
      "outputs": [
        {
          "internalType": "address",
          "name": "",
          "type": "address"
        }
      ],
      "stateMutability": "view",
      "type": "function"
    },
    {
      "inputs": [],
      "name": "_canBurn",
      "outputs": [
        {
          "internalType": "bool",
          "name": "",
          "type": "bool"
        }
      ],
      "stateMutability": "view",
      "type": "function"
    },
    {
      "inputs": [],
      "name": "_dotContract",
      "outputs": [
        {
          "internalType": "contract ERC20",
          "name": "",
          "type": "address"
        }
      ],
      "stateMutability": "view",
      "type": "function"
    },
    {
      "inputs": [],
      "name": "_dotPriceFeed",
      "outputs": [
        {
          "internalType": "contract AggregatorV3Interface",
          "name": "",
          "type": "address"
        }
      ],
      "stateMutability": "view",
      "type": "function"
    },
    {
      "inputs": [
        {
          "internalType": "address",
          "name": "",
          "type": "address"
        }
      ],
      "name": "_locks",
      "outputs": [
        {
          "internalType": "uint256",
          "name": "",
          "type": "uint256"
        }
      ],
      "stateMutability": "view",
      "type": "function"
    },
    {
      "inputs": [],
      "name": "_multisig",
      "outputs": [
        {
          "internalType": "address",
          "name": "",
          "type": "address"
        }
      ],
      "stateMutability": "view",
      "type": "function"
    },
    {
      "inputs": [],
      "name": "_plpdContract",
      "outputs": [
        {
          "internalType": "contract PolkapadERC20",
          "name": "",
          "type": "address"
        }
      ],
      "stateMutability": "view",
      "type": "function"
    },
    {
      "inputs": [],
      "name": "_plpdPrice",
      "outputs": [
        {
          "internalType": "uint256",
          "name": "",
          "type": "uint256"
        }
      ],
      "stateMutability": "view",
      "type": "function"
    },
    {
      "inputs": [
        {
          "internalType": "address",
          "name": "",
          "type": "address"
        }
      ],
      "name": "_polkadotAddresses",
      "outputs": [
        {
          "internalType": "string",
          "name": "",
          "type": "string"
        }
      ],
      "stateMutability": "view",
      "type": "function"
    },
    {
      "inputs": [],
      "name": "_whitelistContract",
      "outputs": [
        {
          "internalType": "contract Whitelist",
          "name": "",
          "type": "address"
        }
      ],
      "stateMutability": "view",
      "type": "function"
    },
    {
      "inputs": [],
      "name": "activateBurning",
      "outputs": [],
      "stateMutability": "nonpayable",
      "type": "function"
    },
    {
      "inputs": [
        {
          "internalType": "address[]",
          "name": "addresses_",
          "type": "address[]"
        }
      ],
      "name": "burnPlpd",
      "outputs": [],
      "stateMutability": "nonpayable",
      "type": "function"
    },
    {
      "inputs": [],
      "name": "getLatestPrice",
      "outputs": [
        {
          "internalType": "uint256",
          "name": "",
          "type": "uint256"
        }
      ],
      "stateMutability": "view",
      "type": "function"
    },
    {
      "inputs": [
        {
          "internalType": "uint256",
          "name": "allocation_",
          "type": "uint256"
        }
      ],
      "name": "lock",
      "outputs": [],
      "stateMutability": "nonpayable",
      "type": "function"
    },
    {
      "inputs": [
        {
          "internalType": "uint256",
          "name": "price",
          "type": "uint256"
        }
      ],
      "name": "setPlpdPrice",
      "outputs": [],
      "stateMutability": "nonpayable",
      "type": "function"
    }
  ],
  "bytecode": "608060405234801561001057600080fd5b5060405162000ed838038062000ed8833981016040819052610031916100c0565b600680546001600160a01b03199081166001600160a01b039889161790915560078054821696881696909617909555600380548616928716929092179091556002805485169386169390931790925560048054841692851692909217909155600580549092169216919091179055610134565b80516001600160a01b03811681146100bb57600080fd5b919050565b60008060008060008060c087890312156100d957600080fd5b6100e2876100a4565b95506100f0602088016100a4565b94506100fe604088016100a4565b935061010c606088016100a4565b925061011a608088016100a4565b915061012860a088016100a4565b90509295509295509295565b610d9480620001446000396000f3fe608060405234801561001057600080fd5b50600436106101005760003560e01c8063b33e40b511610097578063edca14d311610066578063edca14d314610215578063f080da1a1461021d578063f64480d01461023d578063ff5fcbc31461025057600080fd5b8063b33e40b5146101c2578063d4dc542c146101d5578063da073dc7146101f9578063dd4670641461020257600080fd5b80637f70fad9116100d35780637f70fad91461017f5780638e15f473146101945780638fd40d321461019c578063a68b5198146101af57600080fd5b8063161188b61461010557806325ecc79f1461013557806356316b5d14610163578063610936b91461016c575b600080fd5b600254610118906001600160a01b031681565b6040516001600160a01b0390911681526020015b60405180910390f35b6101556101433660046109ce565b60006020819052908152604090205481565b60405190815260200161012c565b61015560085481565b600754610118906001600160a01b031681565b61019261018d3660046109ff565b610263565b005b6101556103f8565b600654610118906001600160a01b031681565b600554610118906001600160a01b031681565b6101926101d0366004610ac4565b610496565b6007546101e990600160a01b900460ff1681565b604051901515815260200161012c565b61015560095481565b610192610210366004610ac4565b6104b2565b6101926108bd565b61023061022b3660046109ce565b6108f9565b60405161012c9190610add565b600454610118906001600160a01b031681565b600354610118906001600160a01b031681565b6007546001600160a01b0316331461027a57600080fd5b600754600160a01b900460ff16151560011461029557600080fd5b60005b81518110156103f45760008282815181106102b5576102b5610b32565b60209081029190910101516003546040516370a0823160e01b81526001600160a01b038084166004830152929350600092909116906370a0823190602401602060405180830381865afa158015610310573d6000803e3d6000fd5b505050506040513d601f19601f820116820180604052508101906103349190610b48565b600354604051632770a7eb60e21b81526001600160a01b03858116600483015260248201849052929350911690639dc29fac90604401600060405180830381600087803b15801561038457600080fd5b505af1158015610398573d6000803e3d6000fd5b50505050816001600160a01b03167f696de425f79f4a40bc6d2122ca50507f0efbeabbff86a84871b7196ab8ea8df7826040516103d791815260200190565b60405180910390a2505080806103ec90610b77565b915050610298565b5050565b600080600560009054906101000a90046001600160a01b03166001600160a01b031663feaf968c6040518163ffffffff1660e01b815260040160a060405180830381865afa15801561044e573d6000803e3d6000fd5b505050506040513d601f19601f820116820180604052508101906104729190610baa565b509193506402540be40092506000915061048e90508383610993565b949350505050565b6006546001600160a01b031633146104ad57600080fd5b600955565b60048054604051634d8c928d60e11b815233928101929092526001600160a01b031690639b19251a90602401602060405180830381865afa1580156104fb573d6000803e3d6000fd5b505050506040513d601f19601f8201168201806040525081019061051f9190610bfa565b151560011461052d57600080fd5b600754600160a01b900460ff161561059a5760405162461bcd60e51b815260206004820152602560248201527f4c6f636b65723a20596f752063616e6e6f74206c6f636b20617420746865206d6044820152641bdb595b9d60da1b60648201526084015b60405180910390fd5b60006105a46103f8565b33600090815260208190526040812054919250670de0b6b3a76400006105d4846105ce85886109a6565b90610993565b6105de9190610c1c565b6004805460405163389d78f160e01b815233928101929092529192506000916001600160a01b03169063389d78f190602401602060405180830381865afa15801561062d573d6000803e3d6000fd5b505050506040513d601f19601f820116820180604052508101906106519190610b48565b9050806000036106c9576004805460408051631e16a46960e11b815290516001600160a01b0390921692633c2d48d29282820192602092908290030181865afa1580156106a2573d6000803e3d6000fd5b505050506040513d601f19601f820116820180604052508101906106c69190610b48565b90505b80821061073e5760405162461bcd60e51b815260206004820152603a60248201527f4c6f636b65723a20796f752063616e6e6f7420616c6c6f63617465206d6f726560448201527f207468616e206d617820616c6c6f636174696f6e2076616c75650000000000006064820152608401610591565b6002546006546040516323b872dd60e01b81523360048201526001600160a01b039182166024820152604481018890529116906323b872dd906064016020604051808303816000875af1158015610799573d6000803e3d6000fd5b505050506040513d601f19601f820116820180604052508101906107bd9190610bfa565b506000670de0b6b3a76400006107de6009548561099390919063ffffffff16565b6107e89190610c1c565b6003546040516340c10f1960e01b8152336004820152602481018390529192506001600160a01b0316906340c10f1990604401600060405180830381600087803b15801561083557600080fd5b505af1158015610849573d6000803e3d6000fd5b5050505061086086856109a690919063ffffffff16565b336000818152602081815260408083209490945560019052829020915190917f91041d6c7a6291cc5133c2d75e882eab111ebfd14edb82460a95c2835e017e74916108ad91908a90610c78565b60405180910390a2505050505050565b6006546001600160a01b031633146108d457600080fd5b6007805460ff60a01b198116600160a01b9182900460ff161590910217905543600855565b6001602052600090815260409020805461091290610c3e565b80601f016020809104026020016040519081016040528092919081815260200182805461093e90610c3e565b801561098b5780601f106109605761010080835404028352916020019161098b565b820191906000526020600020905b81548152906001019060200180831161096e57829003601f168201915b505050505081565b600061099f8284610d27565b9392505050565b600061099f8284610d46565b80356001600160a01b03811681146109c957600080fd5b919050565b6000602082840312156109e057600080fd5b61099f826109b2565b634e487b7160e01b600052604160045260246000fd5b60006020808385031215610a1257600080fd5b823567ffffffffffffffff80821115610a2a57600080fd5b818501915085601f830112610a3e57600080fd5b813581811115610a5057610a506109e9565b8060051b604051601f19603f83011681018181108582111715610a7557610a756109e9565b604052918252848201925083810185019188831115610a9357600080fd5b938501935b82851015610ab857610aa9856109b2565b84529385019392850192610a98565b98975050505050505050565b600060208284031215610ad657600080fd5b5035919050565b600060208083528351808285015260005b81811015610b0a57858101830151858201604001528201610aee565b81811115610b1c576000604083870101525b50601f01601f1916929092016040019392505050565b634e487b7160e01b600052603260045260246000fd5b600060208284031215610b5a57600080fd5b5051919050565b634e487b7160e01b600052601160045260246000fd5b600060018201610b8957610b89610b61565b5060010190565b805169ffffffffffffffffffff811681146109c957600080fd5b600080600080600060a08688031215610bc257600080fd5b610bcb86610b90565b9450602086015193506040860151925060608601519150610bee60808701610b90565b90509295509295909350565b600060208284031215610c0c57600080fd5b8151801515811461099f57600080fd5b600082610c3957634e487b7160e01b600052601260045260246000fd5b500490565b600181811c90821680610c5257607f821691505b602082108103610c7257634e487b7160e01b600052602260045260246000fd5b50919050565b60408152600080845481600182811c915080831680610c9857607f831692505b60208084108203610cb757634e487b7160e01b86526022600452602486fd5b6040880184905260608801828015610cd65760018114610ce757610d12565b60ff19871682528282019750610d12565b60008c81526020902060005b87811015610d0c57815484820152908601908401610cf3565b83019850505b50509690960196909652509095945050505050565b6000816000190483118215151615610d4157610d41610b61565b500290565b60008219821115610d5957610d59610b61565b50019056fea2646970667358221220992e96f11d5473032ecc13eee832e48016a4fa7070fcb1c093044d6c895a352c64736f6c634300080e0033",
  "bytecodeSha1": "7f11fe3ec54dae7014dc16989b4dca91cf67c405",
  "compiler": {
    "evm_version": "istanbul",
    "optimizer": {
      "enabled": true,
      "runs": 200
    },
    "version": "0.8.14+commit.80d49f37"
  },
  "contractName": "Locker",
  "language": "Solidity",
  "natspec": {
    "kind": "dev",
    "methods": {},
    "version": 1
  },
  "opcodes": "PUSH1 0x80 PUSH1 0x40 MSTORE CALLVALUE DUP1 ISZERO PUSH2 0x10 JUMPI PUSH1 0x0 DUP1 REVERT JUMPDEST POP PUSH1 0x4 CALLDATASIZE LT PUSH2 0x100 JUMPI PUSH1 0x0 CALLDATALOAD PUSH1 0xE0 SHR DUP1 PUSH4 0xB33E40B5 GT PUSH2 0x97 JUMPI DUP1 PUSH4 0xEDCA14D3 GT PUSH2 0x66 JUMPI DUP1 PUSH4 0xEDCA14D3 EQ PUSH2 0x215 JUMPI DUP1 PUSH4 0xF080DA1A EQ PUSH2 0x21D JUMPI DUP1 PUSH4 0xF64480D0 EQ PUSH2 0x23D JUMPI DUP1 PUSH4 0xFF5FCBC3 EQ PUSH2 0x250 JUMPI PUSH1 0x0 DUP1 REVERT JUMPDEST DUP1 PUSH4 0xB33E40B5 EQ PUSH2 0x1C2 JUMPI DUP1 PUSH4 0xD4DC542C EQ PUSH2 0x1D5 JUMPI DUP1 PUSH4 0xDA073DC7 EQ PUSH2 0x1F9 JUMPI DUP1 PUSH4 0xDD467064 EQ PUSH2 0x202 JUMPI PUSH1 0x0 DUP1 REVERT JUMPDEST DUP1 PUSH4 0x7F70FAD9 GT PUSH2 0xD3 JUMPI DUP1 PUSH4 0x7F70FAD9 EQ PUSH2 0x17F JUMPI DUP1 PUSH4 0x8E15F473 EQ PUSH2 0x194 JUMPI DUP1 PUSH4 0x8FD40D32 EQ PUSH2 0x19C JUMPI DUP1 PUSH4 0xA68B5198 EQ PUSH2 0x1AF JUMPI PUSH1 0x0 DUP1 REVERT JUMPDEST DUP1 PUSH4 0x161188B6 EQ PUSH2 0x105 JUMPI DUP1 PUSH4 0x25ECC79F EQ PUSH2 0x135 JUMPI DUP1 PUSH4 0x56316B5D EQ PUSH2 0x163 JUMPI DUP1 PUSH4 0x610936B9 EQ PUSH2 0x16C JUMPI JUMPDEST PUSH1 0x0 DUP1 REVERT JUMPDEST PUSH1 0x2 SLOAD PUSH2 0x118 SWAP1 PUSH1 0x1 PUSH1 0x1 PUSH1 0xA0 SHL SUB AND DUP2 JUMP JUMPDEST PUSH1 0x40 MLOAD PUSH1 0x1 PUSH1 0x1 PUSH1 0xA0 SHL SUB SWAP1 SWAP2 AND DUP2 MSTORE PUSH1 0x20 ADD JUMPDEST PUSH1 0x40 MLOAD DUP1 SWAP2 SUB SWAP1 RETURN JUMPDEST PUSH2 0x155 PUSH2 0x143 CALLDATASIZE PUSH1 0x4 PUSH2 0x9CE JUMP JUMPDEST PUSH1 0x0 PUSH1 0x20 DUP2 SWAP1 MSTORE SWAP1 DUP2 MSTORE PUSH1 0x40 SWAP1 KECCAK256 SLOAD DUP2 JUMP JUMPDEST PUSH1 0x40 MLOAD SWAP1 DUP2 MSTORE PUSH1 0x20 ADD PUSH2 0x12C JUMP JUMPDEST PUSH2 0x155 PUSH1 0x8 SLOAD DUP2 JUMP JUMPDEST PUSH1 0x7 SLOAD PUSH2 0x118 SWAP1 PUSH1 0x1 PUSH1 0x1 PUSH1 0xA0 SHL SUB AND DUP2 JUMP JUMPDEST PUSH2 0x192 PUSH2 0x18D CALLDATASIZE PUSH1 0x4 PUSH2 0x9FF JUMP JUMPDEST PUSH2 0x263 JUMP JUMPDEST STOP JUMPDEST PUSH2 0x155 PUSH2 0x3F8 JUMP JUMPDEST PUSH1 0x6 SLOAD PUSH2 0x118 SWAP1 PUSH1 0x1 PUSH1 0x1 PUSH1 0xA0 SHL SUB AND DUP2 JUMP JUMPDEST PUSH1 0x5 SLOAD PUSH2 0x118 SWAP1 PUSH1 0x1 PUSH1 0x1 PUSH1 0xA0 SHL SUB AND DUP2 JUMP JUMPDEST PUSH2 0x192 PUSH2 0x1D0 CALLDATASIZE PUSH1 0x4 PUSH2 0xAC4 JUMP JUMPDEST PUSH2 0x496 JUMP JUMPDEST PUSH1 0x7 SLOAD PUSH2 0x1E9 SWAP1 PUSH1 0x1 PUSH1 0xA0 SHL SWAP1 DIV PUSH1 0xFF AND DUP2 JUMP JUMPDEST PUSH1 0x40 MLOAD SWAP1 ISZERO ISZERO DUP2 MSTORE PUSH1 0x20 ADD PUSH2 0x12C JUMP JUMPDEST PUSH2 0x155 PUSH1 0x9 SLOAD DUP2 JUMP JUMPDEST PUSH2 0x192 PUSH2 0x210 CALLDATASIZE PUSH1 0x4 PUSH2 0xAC4 JUMP JUMPDEST PUSH2 0x4B2 JUMP JUMPDEST PUSH2 0x192 PUSH2 0x8BD JUMP JUMPDEST PUSH2 0x230 PUSH2 0x22B CALLDATASIZE PUSH1 0x4 PUSH2 0x9CE JUMP JUMPDEST PUSH2 0x8F9 JUMP JUMPDEST PUSH1 0x40 MLOAD PUSH2 0x12C SWAP2 SWAP1 PUSH2 0xADD JUMP JUMPDEST PUSH1 0x4 SLOAD PUSH2 0x118 SWAP1 PUSH1 0x1 PUSH1 0x1 PUSH1 0xA0 SHL SUB AND DUP2 JUMP JUMPDEST PUSH1 0x3 SLOAD PUSH2 0x118 SWAP1 PUSH1 0x1 PUSH1 0x1 PUSH1 0xA0 SHL SUB AND DUP2 JUMP JUMPDEST PUSH1 0x7 SLOAD PUSH1 0x1 PUSH1 0x1 PUSH1 0xA0 SHL SUB AND CALLER EQ PUSH2 0x27A JUMPI PUSH1 0x0 DUP1 REVERT JUMPDEST PUSH1 0x7 SLOAD PUSH1 0x1 PUSH1 0xA0 SHL SWAP1 DIV PUSH1 0xFF AND ISZERO ISZERO PUSH1 0x1 EQ PUSH2 0x295 JUMPI PUSH1 0x0 DUP1 REVERT JUMPDEST PUSH1 0x0 JUMPDEST DUP2 MLOAD DUP2 LT ISZERO PUSH2 0x3F4 JUMPI PUSH1 0x0 DUP3 DUP3 DUP2 MLOAD DUP2 LT PUSH2 0x2B5 JUMPI PUSH2 0x2B5 PUSH2 0xB32 JUMP JUMPDEST PUSH1 0x20 SWAP1 DUP2 MUL SWAP2 SWAP1 SWAP2 ADD ADD MLOAD PUSH1 0x3 SLOAD PUSH1 0x40 MLOAD PUSH4 0x70A08231 PUSH1 0xE0 SHL DUP2 MSTORE PUSH1 0x1 PUSH1 0x1 PUSH1 0xA0 SHL SUB DUP1 DUP5 AND PUSH1 0x4 DUP4 ADD MSTORE SWAP3 SWAP4 POP PUSH1 0x0 SWAP3 SWAP1 SWAP2 AND SWAP1 PUSH4 0x70A08231 SWAP1 PUSH1 0x24 ADD PUSH1 0x20 PUSH1 0x40 MLOAD DUP1 DUP4 SUB DUP2 DUP7 GAS STATICCALL ISZERO DUP1 ISZERO PUSH2 0x310 JUMPI RETURNDATASIZE PUSH1 0x0 DUP1 RETURNDATACOPY RETURNDATASIZE PUSH1 0x0 REVERT JUMPDEST POP POP POP POP PUSH1 0x40 MLOAD RETURNDATASIZE PUSH1 0x1F NOT PUSH1 0x1F DUP3 ADD AND DUP3 ADD DUP1 PUSH1 0x40 MSTORE POP DUP2 ADD SWAP1 PUSH2 0x334 SWAP2 SWAP1 PUSH2 0xB48 JUMP JUMPDEST PUSH1 0x3 SLOAD PUSH1 0x40 MLOAD PUSH4 0x2770A7EB PUSH1 0xE2 SHL DUP2 MSTORE PUSH1 0x1 PUSH1 0x1 PUSH1 0xA0 SHL SUB DUP6 DUP2 AND PUSH1 0x4 DUP4 ADD MSTORE PUSH1 0x24 DUP3 ADD DUP5 SWAP1 MSTORE SWAP3 SWAP4 POP SWAP2 AND SWAP1 PUSH4 0x9DC29FAC SWAP1 PUSH1 0x44 ADD PUSH1 0x0 PUSH1 0x40 MLOAD DUP1 DUP4 SUB DUP2 PUSH1 0x0 DUP8 DUP1 EXTCODESIZE ISZERO DUP1 ISZERO PUSH2 0x384 JUMPI PUSH1 0x0 DUP1 REVERT JUMPDEST POP GAS CALL ISZERO DUP1 ISZERO PUSH2 0x398 JUMPI RETURNDATASIZE PUSH1 0x0 DUP1 RETURNDATACOPY RETURNDATASIZE PUSH1 0x0 REVERT JUMPDEST POP POP POP POP DUP2 PUSH1 0x1 PUSH1 0x1 PUSH1 0xA0 SHL SUB AND PUSH32 0x696DE425F79F4A40BC6D2122CA50507F0EFBEABBFF86A84871B7196AB8EA8DF7 DUP3 PUSH1 0x40 MLOAD PUSH2 0x3D7 SWAP2 DUP2 MSTORE PUSH1 0x20 ADD SWAP1 JUMP JUMPDEST PUSH1 0x40 MLOAD DUP1 SWAP2 SUB SWAP1 LOG2 POP POP DUP1 DUP1 PUSH2 0x3EC SWAP1 PUSH2 0xB77 JUMP JUMPDEST SWAP2 POP POP PUSH2 0x298 JUMP JUMPDEST POP POP JUMP JUMPDEST PUSH1 0x0 DUP1 PUSH1 0x5 PUSH1 0x0 SWAP1 SLOAD SWAP1 PUSH2 0x100 EXP SWAP1 DIV PUSH1 0x1 PUSH1 0x1 PUSH1 0xA0 SHL SUB AND PUSH1 0x1 PUSH1 0x1 PUSH1 0xA0 SHL SUB AND PUSH4 0xFEAF968C PUSH1 0x40 MLOAD DUP2 PUSH4 0xFFFFFFFF AND PUSH1 0xE0 SHL DUP2 MSTORE PUSH1 0x4 ADD PUSH1 0xA0 PUSH1 0x40 MLOAD DUP1 DUP4 SUB DUP2 DUP7 GAS STATICCALL ISZERO DUP1 ISZERO PUSH2 0x44E JUMPI RETURNDATASIZE PUSH1 0x0 DUP1 RETURNDATACOPY RETURNDATASIZE PUSH1 0x0 REVERT JUMPDEST POP POP POP POP PUSH1 0x40 MLOAD RETURNDATASIZE PUSH1 0x1F NOT PUSH1 0x1F DUP3 ADD AND DUP3 ADD DUP1 PUSH1 0x40 MSTORE POP DUP2 ADD SWAP1 PUSH2 0x472 SWAP2 SWAP1 PUSH2 0xBAA JUMP JUMPDEST POP SWAP2 SWAP4 POP PUSH5 0x2540BE400 SWAP3 POP PUSH1 0x0 SWAP2 POP PUSH2 0x48E SWAP1 POP DUP4 DUP4 PUSH2 0x993 JUMP JUMPDEST SWAP5 SWAP4 POP POP POP POP JUMP JUMPDEST PUSH1 0x6 SLOAD PUSH1 0x1 PUSH1 0x1 PUSH1 0xA0 SHL SUB AND CALLER EQ PUSH2 0x4AD JUMPI PUSH1 0x0 DUP1 REVERT JUMPDEST PUSH1 0x9 SSTORE JUMP JUMPDEST PUSH1 0x4 DUP1 SLOAD PUSH1 0x40 MLOAD PUSH4 0x4D8C928D PUSH1 0xE1 SHL DUP2 MSTORE CALLER SWAP3 DUP2 ADD SWAP3 SWAP1 SWAP3 MSTORE PUSH1 0x1 PUSH1 0x1 PUSH1 0xA0 SHL SUB AND SWAP1 PUSH4 0x9B19251A SWAP1 PUSH1 0x24 ADD PUSH1 0x20 PUSH1 0x40 MLOAD DUP1 DUP4 SUB DUP2 DUP7 GAS STATICCALL ISZERO DUP1 ISZERO PUSH2 0x4FB JUMPI RETURNDATASIZE PUSH1 0x0 DUP1 RETURNDATACOPY RETURNDATASIZE PUSH1 0x0 REVERT JUMPDEST POP POP POP POP PUSH1 0x40 MLOAD RETURNDATASIZE PUSH1 0x1F NOT PUSH1 0x1F DUP3 ADD AND DUP3 ADD DUP1 PUSH1 0x40 MSTORE POP DUP2 ADD SWAP1 PUSH2 0x51F SWAP2 SWAP1 PUSH2 0xBFA JUMP JUMPDEST ISZERO ISZERO PUSH1 0x1 EQ PUSH2 0x52D JUMPI PUSH1 0x0 DUP1 REVERT JUMPDEST PUSH1 0x7 SLOAD PUSH1 0x1 PUSH1 0xA0 SHL SWAP1 DIV PUSH1 0xFF AND ISZERO PUSH2 0x59A JUMPI PUSH1 0x40 MLOAD PUSH3 0x461BCD PUSH1 0xE5 SHL DUP2 MSTORE PUSH1 0x20 PUSH1 0x4 DUP3 ADD MSTORE PUSH1 0x25 PUSH1 0x24 DUP3 ADD MSTORE PUSH32 0x4C6F636B65723A20596F752063616E6E6F74206C6F636B20617420746865206D PUSH1 0x44 DUP3 ADD MSTORE PUSH5 0x1BDB595B9D PUSH1 0xDA SHL PUSH1 0x64 DUP3 ADD MSTORE PUSH1 0x84 ADD JUMPDEST PUSH1 0x40 MLOAD DUP1 SWAP2 SUB SWAP1 REVERT JUMPDEST PUSH1 0x0 PUSH2 0x5A4 PUSH2 0x3F8 JUMP JUMPDEST CALLER PUSH1 0x0 SWAP1 DUP2 MSTORE PUSH1 0x20 DUP2 SWAP1 MSTORE PUSH1 0x40 DUP2 KECCAK256 SLOAD SWAP2 SWAP3 POP PUSH8 0xDE0B6B3A7640000 PUSH2 0x5D4 DUP5 PUSH2 0x5CE DUP6 DUP9 PUSH2 0x9A6 JUMP JUMPDEST SWAP1 PUSH2 0x993 JUMP JUMPDEST PUSH2 0x5DE SWAP2 SWAP1 PUSH2 0xC1C JUMP JUMPDEST PUSH1 0x4 DUP1 SLOAD PUSH1 0x40 MLOAD PUSH4 0x389D78F1 PUSH1 0xE0 SHL DUP2 MSTORE CALLER SWAP3 DUP2 ADD SWAP3 SWAP1 SWAP3 MSTORE SWAP2 SWAP3 POP PUSH1 0x0 SWAP2 PUSH1 0x1 PUSH1 0x1 PUSH1 0xA0 SHL SUB AND SWAP1 PUSH4 0x389D78F1 SWAP1 PUSH1 0x24 ADD PUSH1 0x20 PUSH1 0x40 MLOAD DUP1 DUP4 SUB DUP2 DUP7 GAS STATICCALL ISZERO DUP1 ISZERO PUSH2 0x62D JUMPI RETURNDATASIZE PUSH1 0x0 DUP1 RETURNDATACOPY RETURNDATASIZE PUSH1 0x0 REVERT JUMPDEST POP POP POP POP PUSH1 0x40 MLOAD RETURNDATASIZE PUSH1 0x1F NOT PUSH1 0x1F DUP3 ADD AND DUP3 ADD DUP1 PUSH1 0x40 MSTORE POP DUP2 ADD SWAP1 PUSH2 0x651 SWAP2 SWAP1 PUSH2 0xB48 JUMP JUMPDEST SWAP1 POP DUP1 PUSH1 0x0 SUB PUSH2 0x6C9 JUMPI PUSH1 0x4 DUP1 SLOAD PUSH1 0x40 DUP1 MLOAD PUSH4 0x1E16A469 PUSH1 0xE1 SHL DUP2 MSTORE SWAP1 MLOAD PUSH1 0x1 PUSH1 0x1 PUSH1 0xA0 SHL SUB SWAP1 SWAP3 AND SWAP3 PUSH4 0x3C2D48D2 SWAP3 DUP3 DUP3 ADD SWAP3 PUSH1 0x20 SWAP3 SWAP1 DUP3 SWAP1 SUB ADD DUP2 DUP7 GAS STATICCALL ISZERO DUP1 ISZERO PUSH2 0x6A2 JUMPI RETURNDATASIZE PUSH1 0x0 DUP1 RETURNDATACOPY RETURNDATASIZE PUSH1 0x0 REVERT JUMPDEST POP POP POP POP PUSH1 0x40 MLOAD RETURNDATASIZE PUSH1 0x1F NOT PUSH1 0x1F DUP3 ADD AND DUP3 ADD DUP1 PUSH1 0x40 MSTORE POP DUP2 ADD SWAP1 PUSH2 0x6C6 SWAP2 SWAP1 PUSH2 0xB48 JUMP JUMPDEST SWAP1 POP JUMPDEST DUP1 DUP3 LT PUSH2 0x73E JUMPI PUSH1 0x40 MLOAD PUSH3 0x461BCD PUSH1 0xE5 SHL DUP2 MSTORE PUSH1 0x20 PUSH1 0x4 DUP3 ADD MSTORE PUSH1 0x3A PUSH1 0x24 DUP3 ADD MSTORE PUSH32 0x4C6F636B65723A20796F752063616E6E6F7420616C6C6F63617465206D6F7265 PUSH1 0x44 DUP3 ADD MSTORE PUSH32 0x207468616E206D617820616C6C6F636174696F6E2076616C7565000000000000 PUSH1 0x64 DUP3 ADD MSTORE PUSH1 0x84 ADD PUSH2 0x591 JUMP JUMPDEST PUSH1 0x2 SLOAD PUSH1 0x6 SLOAD PUSH1 0x40 MLOAD PUSH4 0x23B872DD PUSH1 0xE0 SHL DUP2 MSTORE CALLER PUSH1 0x4 DUP3 ADD MSTORE PUSH1 0x1 PUSH1 0x1 PUSH1 0xA0 SHL SUB SWAP2 DUP3 AND PUSH1 0x24 DUP3 ADD MSTORE PUSH1 0x44 DUP2 ADD DUP9 SWAP1 MSTORE SWAP2 AND SWAP1 PUSH4 0x23B872DD SWAP1 PUSH1 0x64 ADD PUSH1 0x20 PUSH1 0x40 MLOAD DUP1 DUP4 SUB DUP2 PUSH1 0x0 DUP8 GAS CALL ISZERO DUP1 ISZERO PUSH2 0x799 JUMPI RETURNDATASIZE PUSH1 0x0 DUP1 RETURNDATACOPY RETURNDATASIZE PUSH1 0x0 REVERT JUMPDEST POP POP POP POP PUSH1 0x40 MLOAD RETURNDATASIZE PUSH1 0x1F NOT PUSH1 0x1F DUP3 ADD AND DUP3 ADD DUP1 PUSH1 0x40 MSTORE POP DUP2 ADD SWAP1 PUSH2 0x7BD SWAP2 SWAP1 PUSH2 0xBFA JUMP JUMPDEST POP PUSH1 0x0 PUSH8 0xDE0B6B3A7640000 PUSH2 0x7DE PUSH1 0x9 SLOAD DUP6 PUSH2 0x993 SWAP1 SWAP2 SWAP1 PUSH4 0xFFFFFFFF AND JUMP JUMPDEST PUSH2 0x7E8 SWAP2 SWAP1 PUSH2 0xC1C JUMP JUMPDEST PUSH1 0x3 SLOAD PUSH1 0x40 MLOAD PUSH4 0x40C10F19 PUSH1 0xE0 SHL DUP2 MSTORE CALLER PUSH1 0x4 DUP3 ADD MSTORE PUSH1 0x24 DUP2 ADD DUP4 SWAP1 MSTORE SWAP2 SWAP3 POP PUSH1 0x1 PUSH1 0x1 PUSH1 0xA0 SHL SUB AND SWAP1 PUSH4 0x40C10F19 SWAP1 PUSH1 0x44 ADD PUSH1 0x0 PUSH1 0x40 MLOAD DUP1 DUP4 SUB DUP2 PUSH1 0x0 DUP8 DUP1 EXTCODESIZE ISZERO DUP1 ISZERO PUSH2 0x835 JUMPI PUSH1 0x0 DUP1 REVERT JUMPDEST POP GAS CALL ISZERO DUP1 ISZERO PUSH2 0x849 JUMPI RETURNDATASIZE PUSH1 0x0 DUP1 RETURNDATACOPY RETURNDATASIZE PUSH1 0x0 REVERT JUMPDEST POP POP POP POP PUSH2 0x860 DUP7 DUP6 PUSH2 0x9A6 SWAP1 SWAP2 SWAP1 PUSH4 0xFFFFFFFF AND JUMP JUMPDEST CALLER PUSH1 0x0 DUP2 DUP2 MSTORE PUSH1 0x20 DUP2 DUP2 MSTORE PUSH1 0x40 DUP1 DUP4 KECCAK256 SWAP5 SWAP1 SWAP5 SSTORE PUSH1 0x1 SWAP1 MSTORE DUP3 SWAP1 KECCAK256 SWAP2 MLOAD SWAP1 SWAP2 PUSH32 0x91041D6C7A6291CC5133C2D75E882EAB111EBFD14EDB82460A95C2835E017E74 SWAP2 PUSH2 0x8AD SWAP2 SWAP1 DUP11 SWAP1 PUSH2 0xC78 JUMP JUMPDEST PUSH1 0x40 MLOAD DUP1 SWAP2 SUB SWAP1 LOG2 POP POP POP POP POP POP JUMP JUMPDEST PUSH1 0x6 SLOAD PUSH1 0x1 PUSH1 0x1 PUSH1 0xA0 SHL SUB AND CALLER EQ PUSH2 0x8D4 JUMPI PUSH1 0x0 DUP1 REVERT JUMPDEST PUSH1 0x7 DUP1 SLOAD PUSH1 0xFF PUSH1 0xA0 SHL NOT DUP2 AND PUSH1 0x1 PUSH1 0xA0 SHL SWAP2 DUP3 SWAP1 DIV PUSH1 0xFF AND ISZERO SWAP1 SWAP2 MUL OR SWAP1 SSTORE NUMBER PUSH1 0x8 SSTORE JUMP JUMPDEST PUSH1 0x1 PUSH1 0x20 MSTORE PUSH1 0x0 SWAP1 DUP2 MSTORE PUSH1 0x40 SWAP1 KECCAK256 DUP1 SLOAD PUSH2 0x912 SWAP1 PUSH2 0xC3E JUMP JUMPDEST DUP1 PUSH1 0x1F ADD PUSH1 0x20 DUP1 SWAP2 DIV MUL PUSH1 0x20 ADD PUSH1 0x40 MLOAD SWAP1 DUP2 ADD PUSH1 0x40 MSTORE DUP1 SWAP3 SWAP2 SWAP1 DUP2 DUP2 MSTORE PUSH1 0x20 ADD DUP3 DUP1 SLOAD PUSH2 0x93E SWAP1 PUSH2 0xC3E JUMP JUMPDEST DUP1 ISZERO PUSH2 0x98B JUMPI DUP1 PUSH1 0x1F LT PUSH2 0x960 JUMPI PUSH2 0x100 DUP1 DUP4 SLOAD DIV MUL DUP4 MSTORE SWAP2 PUSH1 0x20 ADD SWAP2 PUSH2 0x98B JUMP JUMPDEST DUP3 ADD SWAP2 SWAP1 PUSH1 0x0 MSTORE PUSH1 0x20 PUSH1 0x0 KECCAK256 SWAP1 JUMPDEST DUP2 SLOAD DUP2 MSTORE SWAP1 PUSH1 0x1 ADD SWAP1 PUSH1 0x20 ADD DUP1 DUP4 GT PUSH2 0x96E JUMPI DUP3 SWAP1 SUB PUSH1 0x1F AND DUP3 ADD SWAP2 JUMPDEST POP POP POP POP POP DUP2 JUMP JUMPDEST PUSH1 0x0 PUSH2 0x99F DUP3 DUP5 PUSH2 0xD27 JUMP JUMPDEST SWAP4 SWAP3 POP POP POP JUMP JUMPDEST PUSH1 0x0 PUSH2 0x99F DUP3 DUP5 PUSH2 0xD46 JUMP JUMPDEST DUP1 CALLDATALOAD PUSH1 0x1 PUSH1 0x1 PUSH1 0xA0 SHL SUB DUP2 AND DUP2 EQ PUSH2 0x9C9 JUMPI PUSH1 0x0 DUP1 REVERT JUMPDEST SWAP2 SWAP1 POP JUMP JUMPDEST PUSH1 0x0 PUSH1 0x20 DUP3 DUP5 SUB SLT ISZERO PUSH2 0x9E0 JUMPI PUSH1 0x0 DUP1 REVERT JUMPDEST PUSH2 0x99F DUP3 PUSH2 0x9B2 JUMP JUMPDEST PUSH4 0x4E487B71 PUSH1 0xE0 SHL PUSH1 0x0 MSTORE PUSH1 0x41 PUSH1 0x4 MSTORE PUSH1 0x24 PUSH1 0x0 REVERT JUMPDEST PUSH1 0x0 PUSH1 0x20 DUP1 DUP4 DUP6 SUB SLT ISZERO PUSH2 0xA12 JUMPI PUSH1 0x0 DUP1 REVERT JUMPDEST DUP3 CALLDATALOAD PUSH8 0xFFFFFFFFFFFFFFFF DUP1 DUP3 GT ISZERO PUSH2 0xA2A JUMPI PUSH1 0x0 DUP1 REVERT JUMPDEST DUP2 DUP6 ADD SWAP2 POP DUP6 PUSH1 0x1F DUP4 ADD SLT PUSH2 0xA3E JUMPI PUSH1 0x0 DUP1 REVERT JUMPDEST DUP2 CALLDATALOAD DUP2 DUP2 GT ISZERO PUSH2 0xA50 JUMPI PUSH2 0xA50 PUSH2 0x9E9 JUMP JUMPDEST DUP1 PUSH1 0x5 SHL PUSH1 0x40 MLOAD PUSH1 0x1F NOT PUSH1 0x3F DUP4 ADD AND DUP2 ADD DUP2 DUP2 LT DUP6 DUP3 GT OR ISZERO PUSH2 0xA75 JUMPI PUSH2 0xA75 PUSH2 0x9E9 JUMP JUMPDEST PUSH1 0x40 MSTORE SWAP2 DUP3 MSTORE DUP5 DUP3 ADD SWAP3 POP DUP4 DUP2 ADD DUP6 ADD SWAP2 DUP9 DUP4 GT ISZERO PUSH2 0xA93 JUMPI PUSH1 0x0 DUP1 REVERT JUMPDEST SWAP4 DUP6 ADD SWAP4 JUMPDEST DUP3 DUP6 LT ISZERO PUSH2 0xAB8 JUMPI PUSH2 0xAA9 DUP6 PUSH2 0x9B2 JUMP JUMPDEST DUP5 MSTORE SWAP4 DUP6 ADD SWAP4 SWAP3 DUP6 ADD SWAP3 PUSH2 0xA98 JUMP JUMPDEST SWAP9 SWAP8 POP POP POP POP POP POP POP POP JUMP JUMPDEST PUSH1 0x0 PUSH1 0x20 DUP3 DUP5 SUB SLT ISZERO PUSH2 0xAD6 JUMPI PUSH1 0x0 DUP1 REVERT JUMPDEST POP CALLDATALOAD SWAP2 SWAP1 POP JUMP JUMPDEST PUSH1 0x0 PUSH1 0x20 DUP1 DUP4 MSTORE DUP4 MLOAD DUP1 DUP3 DUP6 ADD MSTORE PUSH1 0x0 JUMPDEST DUP2 DUP2 LT ISZERO PUSH2 0xB0A JUMPI DUP6 DUP2 ADD DUP4 ADD MLOAD DUP6 DUP3 ADD PUSH1 0x40 ADD MSTORE DUP3 ADD PUSH2 0xAEE JUMP JUMPDEST DUP2 DUP2 GT ISZERO PUSH2 0xB1C JUMPI PUSH1 0x0 PUSH1 0x40 DUP4 DUP8 ADD ADD MSTORE JUMPDEST POP PUSH1 0x1F ADD PUSH1 0x1F NOT AND SWAP3 SWAP1 SWAP3 ADD PUSH1 0x40 ADD SWAP4 SWAP3 POP POP POP JUMP JUMPDEST PUSH4 0x4E487B71 PUSH1 0xE0 SHL PUSH1 0x0 MSTORE PUSH1 0x32 PUSH1 0x4 MSTORE PUSH1 0x24 PUSH1 0x0 REVERT JUMPDEST PUSH1 0x0 PUSH1 0x20 DUP3 DUP5 SUB SLT ISZERO PUSH2 0xB5A JUMPI PUSH1 0x0 DUP1 REVERT JUMPDEST POP MLOAD SWAP2 SWAP1 POP JUMP JUMPDEST PUSH4 0x4E487B71 PUSH1 0xE0 SHL PUSH1 0x0 MSTORE PUSH1 0x11 PUSH1 0x4 MSTORE PUSH1 0x24 PUSH1 0x0 REVERT JUMPDEST PUSH1 0x0 PUSH1 0x1 DUP3 ADD PUSH2 0xB89 JUMPI PUSH2 0xB89 PUSH2 0xB61 JUMP JUMPDEST POP PUSH1 0x1 ADD SWAP1 JUMP JUMPDEST DUP1 MLOAD PUSH10 0xFFFFFFFFFFFFFFFFFFFF DUP2 AND DUP2 EQ PUSH2 0x9C9 JUMPI PUSH1 0x0 DUP1 REVERT JUMPDEST PUSH1 0x0 DUP1 PUSH1 0x0 DUP1 PUSH1 0x0 PUSH1 0xA0 DUP7 DUP9 SUB SLT ISZERO PUSH2 0xBC2 JUMPI PUSH1 0x0 DUP1 REVERT JUMPDEST PUSH2 0xBCB DUP7 PUSH2 0xB90 JUMP JUMPDEST SWAP5 POP PUSH1 0x20 DUP7 ADD MLOAD SWAP4 POP PUSH1 0x40 DUP7 ADD MLOAD SWAP3 POP PUSH1 0x60 DUP7 ADD MLOAD SWAP2 POP PUSH2 0xBEE PUSH1 0x80 DUP8 ADD PUSH2 0xB90 JUMP JUMPDEST SWAP1 POP SWAP3 SWAP6 POP SWAP3 SWAP6 SWAP1 SWAP4 POP JUMP JUMPDEST PUSH1 0x0 PUSH1 0x20 DUP3 DUP5 SUB SLT ISZERO PUSH2 0xC0C JUMPI PUSH1 0x0 DUP1 REVERT JUMPDEST DUP2 MLOAD DUP1 ISZERO ISZERO DUP2 EQ PUSH2 0x99F JUMPI PUSH1 0x0 DUP1 REVERT JUMPDEST PUSH1 0x0 DUP3 PUSH2 0xC39 JUMPI PUSH4 0x4E487B71 PUSH1 0xE0 SHL PUSH1 0x0 MSTORE PUSH1 0x12 PUSH1 0x4 MSTORE PUSH1 0x24 PUSH1 0x0 REVERT JUMPDEST POP DIV SWAP1 JUMP JUMPDEST PUSH1 0x1 DUP2 DUP2 SHR SWAP1 DUP3 AND DUP1 PUSH2 0xC52 JUMPI PUSH1 0x7F DUP3 AND SWAP2 POP JUMPDEST PUSH1 0x20 DUP3 LT DUP2 SUB PUSH2 0xC72 JUMPI PUSH4 0x4E487B71 PUSH1 0xE0 SHL PUSH1 0x0 MSTORE PUSH1 0x22 PUSH1 0x4 MSTORE PUSH1 0x24 PUSH1 0x0 REVERT JUMPDEST POP SWAP2 SWAP1 POP JUMP JUMPDEST PUSH1 0x40 DUP2 MSTORE PUSH1 0x0 DUP1 DUP5 SLOAD DUP2 PUSH1 0x1 DUP3 DUP2 SHR SWAP2 POP DUP1 DUP4 AND DUP1 PUSH2 0xC98 JUMPI PUSH1 0x7F DUP4 AND SWAP3 POP JUMPDEST PUSH1 0x20 DUP1 DUP5 LT DUP3 SUB PUSH2 0xCB7 JUMPI PUSH4 0x4E487B71 PUSH1 0xE0 SHL DUP7 MSTORE PUSH1 0x22 PUSH1 0x4 MSTORE PUSH1 0x24 DUP7 REVERT JUMPDEST PUSH1 0x40 DUP9 ADD DUP5 SWAP1 MSTORE PUSH1 0x60 DUP9 ADD DUP3 DUP1 ISZERO PUSH2 0xCD6 JUMPI PUSH1 0x1 DUP2 EQ PUSH2 0xCE7 JUMPI PUSH2 0xD12 JUMP JUMPDEST PUSH1 0xFF NOT DUP8 AND DUP3 MSTORE DUP3 DUP3 ADD SWAP8 POP PUSH2 0xD12 JUMP JUMPDEST PUSH1 0x0 DUP13 DUP2 MSTORE PUSH1 0x20 SWAP1 KECCAK256 PUSH1 0x0 JUMPDEST DUP8 DUP2 LT ISZERO PUSH2 0xD0C JUMPI DUP2 SLOAD DUP5 DUP3 ADD MSTORE SWAP1 DUP7 ADD SWAP1 DUP5 ADD PUSH2 0xCF3 JUMP JUMPDEST DUP4 ADD SWAP9 POP POP JUMPDEST POP POP SWAP7 SWAP1 SWAP7 ADD SWAP7 SWAP1 SWAP7 MSTORE POP SWAP1 SWAP6 SWAP5 POP POP POP POP POP JUMP JUMPDEST PUSH1 0x0 DUP2 PUSH1 0x0 NOT DIV DUP4 GT DUP3 ISZERO ISZERO AND ISZERO PUSH2 0xD41 JUMPI PUSH2 0xD41 PUSH2 0xB61 JUMP JUMPDEST POP MUL SWAP1 JUMP JUMPDEST PUSH1 0x0 DUP3 NOT DUP3 GT ISZERO PUSH2 0xD59 JUMPI PUSH2 0xD59 PUSH2 0xB61 JUMP JUMPDEST POP ADD SWAP1 JUMP INVALID LOG2 PUSH5 0x6970667358 0x22 SLT KECCAK256 SWAP10 0x2E SWAP7 CALL SAR SLOAD PUSH20 0x32ECC13EEE832E48016A4FA7070FCB1C093044D PUSH13 0x895A352C64736F6C634300080E STOP CALLER ",
  "sha1": "ab4d4a57bbecf6fa9a59a80c1685a3964ef8de99",
  "source": "// SPDX-License-Identifier: MIT\n\npragma solidity ^0.8.7;\n\nimport '@openzeppelin/contracts/token/ERC20/ERC20.sol';\nimport '@openzeppelin/contracts/utils/math/SafeMath.sol';\nimport '@chainlink/contracts/src/v0.8/interfaces/AggregatorV3Interface.sol';\nimport './PolkapadERC20.sol';\nimport './Whitelist.sol';\n\ncontract Locker {\n    using SafeMath for uint256;\n\n    mapping (address => uint256) public _locks;\n    mapping (address => string)  public _polkadotAddresses;\n\n    ERC20           public _dotContract;\n    PolkapadERC20   public _plpdContract;\n    Whitelist       public _whitelistContract;\n\n    AggregatorV3Interface public _dotPriceFeed;\n\n    address public _multisig;\n    address public _burner;\n\n    bool public _canBurn;\n    uint public _burnBlockNumber;\n\n    uint256 public _plpdPrice;\n\n    event Locked(address indexed account, string polkadotAddress, uint256 allocation);\n    event Burned(address indexed account, uint256 burned);\n\n    constructor(\n        address multisig_,\n        address burner_,\n        address dotContract_, \n        address dotFeedContract_,\n        address plpdContract_,\n        address whitelistContract_) {\n        _multisig = multisig_;\n        _burner = burner_;\n\n        _plpdContract = PolkapadERC20(plpdContract_);\n        _dotContract = ERC20(dotContract_);\n        _whitelistContract = Whitelist(whitelistContract_);\n\n        _dotPriceFeed = AggregatorV3Interface(dotFeedContract_);\n    }\n\n    modifier whitelisted {\n        require(_whitelistContract.whitelist(msg.sender) == true);\n        _;\n    }\n\n    modifier multisig {\n        require(msg.sender == _multisig);\n        _;\n    }\n\n    modifier burner {\n        require(msg.sender == _burner);\n        _;\n    }\n\n    function lock(uint256 allocation_) public whitelisted {\n        require(_canBurn == false, \"Locker: You cannot lock at the moment\");\n\n        uint256 dotPrice = getLatestPrice();\n\n        uint256 lockedAllocation = _locks[msg.sender];\n        uint256 allocationInUsdt = lockedAllocation.add(allocation_).mul(dotPrice) / 1e18;\n\n        uint256 maxAllocationSize = _whitelistContract.allocationSizes(msg.sender);\n        if (maxAllocationSize == 0) {\n            maxAllocationSize = _whitelistContract.defaultAllocationSize();\n        }\n\n        require(\n            allocationInUsdt < maxAllocationSize,\n            \"Locker: you cannot allocate more than max allocation value\");\n\n        _dotContract.transferFrom(msg.sender, _multisig, allocation_);\n\n        uint256 plpdAmount = allocationInUsdt.mul(_plpdPrice) / 1e18;\n        _plpdContract.mint(msg.sender, plpdAmount);\n\n        _locks[msg.sender] = lockedAllocation.add(allocation_);\n\n        emit Locked(msg.sender, _polkadotAddresses[msg.sender], allocation_);\n    }\n\n    function setPlpdPrice(uint256 price) public multisig {\n        _plpdPrice = price;\n    }\n\n    function activateBurning() public multisig {\n        _canBurn = !_canBurn;\n        _burnBlockNumber = block.number;\n    }\n\n    function burnPlpd(address[] memory addresses_) public burner {\n        require(_canBurn == true);\n        \n        for (uint256 i = 0; i < addresses_.length; i++) {\n            address address_ = addresses_[i];\n            \n            uint256 plpdAmount = _plpdContract.balanceOf(address_);\n            _plpdContract.burn(address_, plpdAmount);\n\n            emit Burned(address_, plpdAmount);\n        }\n    }\n\n    function getLatestPrice() public view returns (uint256) {\n        (\n            /*uint80 roundID*/,\n            int price,\n            /*uint startedAt*/,\n            /*uint timeStamp*/,\n            /*uint80 answeredInRound*/\n        ) = _dotPriceFeed.latestRoundData();\n\n        uint256 adjustedDecimals = 1e18 / 1e8;\n        uint256 adjustedPrice = uint256(price).mul(adjustedDecimals);\n\n        return adjustedPrice;\n    }\n}\n",
  "sourcePath": "contracts/Locker.sol",
  "type": "contract"
}