{
  "abi": [
    {
      "inputs": [
        {
          "internalType": "address",
          "name": "multisigAddress_",
          "type": "address"
        }
      ],
      "stateMutability": "nonpayable",
      "type": "constructor"
    },
    {
      "anonymous": false,
      "inputs": [
        {
          "indexed": true,
          "internalType": "address",
          "name": "account",
          "type": "address"
        }
      ],
      "name": "AddedToWhitelist",
      "type": "event"
    },
    {
      "anonymous": false,
      "inputs": [
        {
          "indexed": true,
          "internalType": "address",
          "name": "account",
          "type": "address"
        },
        {
          "indexed": false,
          "internalType": "uint256",
          "name": "oldMaxAllocationSize",
          "type": "uint256"
        },
        {
          "indexed": false,
          "internalType": "uint256",
          "name": "newMaxAllocationSize",
          "type": "uint256"
        }
      ],
      "name": "ChangedMaxAllocationSize",
      "type": "event"
    },
    {
      "anonymous": false,
      "inputs": [
        {
          "indexed": true,
          "internalType": "address",
          "name": "account",
          "type": "address"
        }
      ],
      "name": "RemovedFromWhitelist",
      "type": "event"
    },
    {
      "inputs": [
        {
          "internalType": "address",
          "name": "address_",
          "type": "address"
        },
        {
          "internalType": "uint256",
          "name": "allocationSize_",
          "type": "uint256"
        }
      ],
      "name": "add",
      "outputs": [],
      "stateMutability": "nonpayable",
      "type": "function"
    },
    {
      "inputs": [
        {
          "internalType": "address",
          "name": "",
          "type": "address"
        }
      ],
      "name": "allocationSizes",
      "outputs": [
        {
          "internalType": "uint256",
          "name": "",
          "type": "uint256"
        }
      ],
      "stateMutability": "view",
      "type": "function"
    },
    {
      "inputs": [
        {
          "internalType": "address",
          "name": "address_",
          "type": "address"
        },
        {
          "internalType": "uint256",
          "name": "newMaxAllocationSize_",
          "type": "uint256"
        }
      ],
      "name": "changeAllocationSize",
      "outputs": [],
      "stateMutability": "nonpayable",
      "type": "function"
    },
    {
      "inputs": [],
      "name": "defaultAllocationSize",
      "outputs": [
        {
          "internalType": "uint256",
          "name": "",
          "type": "uint256"
        }
      ],
      "stateMutability": "view",
      "type": "function"
    },
    {
      "inputs": [],
      "name": "multisigAddress",
      "outputs": [
        {
          "internalType": "address",
          "name": "",
          "type": "address"
        }
      ],
      "stateMutability": "view",
      "type": "function"
    },
    {
      "inputs": [
        {
          "internalType": "address",
          "name": "address_",
          "type": "address"
        }
      ],
      "name": "remove",
      "outputs": [],
      "stateMutability": "nonpayable",
      "type": "function"
    },
    {
      "inputs": [
        {
          "internalType": "uint256",
          "name": "allocationSize_",
          "type": "uint256"
        }
      ],
      "name": "setDefaultAllocationSize",
      "outputs": [],
      "stateMutability": "nonpayable",
      "type": "function"
    },
    {
      "inputs": [
        {
          "internalType": "address",
          "name": "",
          "type": "address"
        }
      ],
      "name": "whitelist",
      "outputs": [
        {
          "internalType": "bool",
          "name": "",
          "type": "bool"
        }
      ],
      "stateMutability": "view",
      "type": "function"
    }
  ],
  "bytecode": "608060405234801561001057600080fd5b5060405161051c38038061051c83398101604081905261002f91610054565b600380546001600160a01b0319166001600160a01b0392909216919091179055610084565b60006020828403121561006657600080fd5b81516001600160a01b038116811461007d57600080fd5b9392505050565b610489806100936000396000f3fe608060405234801561001057600080fd5b50600436106100885760003560e01c80637856ddb41161005b5780637856ddb4146101095780639b19251a1461011c578063f5d82b6b1461014f578063fc18f6221461016257600080fd5b806329092d0e1461008d578063389d78f1146100a25780633c2d48d2146100d55780635462870d146100de575b600080fd5b6100a061009b3660046103ee565b610175565b005b6100c26100b03660046103ee565b60016020526000908152604090205481565b6040519081526020015b60405180910390f35b6100c260025481565b6003546100f1906001600160a01b031681565b6040516001600160a01b0390911681526020016100cc565b6100a0610117366004610410565b61020b565b61013f61012a3660046103ee565b60006020819052908152604090205460ff1681565b60405190151581526020016100cc565b6100a061015d366004610410565b610305565b6100a061017036600461043a565b6103a9565b6003546001600160a01b0316331461018c57600080fd5b6001600160a01b038116600090815260208181526040808320805460ff191690556001909152902054156101d4576001600160a01b0381166000908152600160205260408120555b6040516001600160a01b038216907fcdd2e9b91a56913d370075169cefa1602ba36be5301664f752192bb1709df75790600090a250565b6003546001600160a01b0316331461022257600080fd5b6001600160a01b03821660009081526020819052604090205460ff1615156001146102a75760405162461bcd60e51b815260206004820152602b60248201527f57686974656c69737420646f6573206e6f7420636f6e7461696e2070726f766960448201526a646564206164647265737360a81b606482015260840160405180910390fd5b6001600160a01b038216600081815260016020908152604091829020805490859055825181815291820185905292917e97f043a36b6f38f6336741a5cabfadabd02d0ba3c0308e608df91d61d59dda910160405180910390a2505050565b6003546001600160a01b0316331461031c57600080fd5b6001600160a01b0382166000908152602081905260409020805460ff19166001179055801580159061035057506002548114155b15610371576001600160a01b03821660009081526001602052604090208190555b6040516001600160a01b038316907fa850ae9193f515cbae8d35e8925bd2be26627fc91bce650b8652ed254e9cab0390600090a25050565b6003546001600160a01b031633146103c057600080fd5b600081116103cd57600080fd5b600255565b80356001600160a01b03811681146103e957600080fd5b919050565b60006020828403121561040057600080fd5b610409826103d2565b9392505050565b6000806040838503121561042357600080fd5b61042c836103d2565b946020939093013593505050565b60006020828403121561044c57600080fd5b503591905056fea2646970667358221220424348e0751935d3fcda0e484ab2cee507bef22a5ff8cc1538209ab3598f516464736f6c634300080e0033",
  "bytecodeSha1": "22dd9dd86ff0b245f6bc4ce2e80638288bc7a77f",
  "compiler": {
    "evm_version": "istanbul",
    "optimizer": {
      "enabled": true,
      "runs": 200
    },
    "version": "0.8.14+commit.80d49f37"
  },
  "contractName": "Whitelist",
  "language": "Solidity",
  "natspec": {
    "kind": "dev",
    "methods": {},
    "version": 1
  },
  "opcodes": "PUSH1 0x80 PUSH1 0x40 MSTORE CALLVALUE DUP1 ISZERO PUSH2 0x10 JUMPI PUSH1 0x0 DUP1 REVERT JUMPDEST POP PUSH1 0x4 CALLDATASIZE LT PUSH2 0x88 JUMPI PUSH1 0x0 CALLDATALOAD PUSH1 0xE0 SHR DUP1 PUSH4 0x7856DDB4 GT PUSH2 0x5B JUMPI DUP1 PUSH4 0x7856DDB4 EQ PUSH2 0x109 JUMPI DUP1 PUSH4 0x9B19251A EQ PUSH2 0x11C JUMPI DUP1 PUSH4 0xF5D82B6B EQ PUSH2 0x14F JUMPI DUP1 PUSH4 0xFC18F622 EQ PUSH2 0x162 JUMPI PUSH1 0x0 DUP1 REVERT JUMPDEST DUP1 PUSH4 0x29092D0E EQ PUSH2 0x8D JUMPI DUP1 PUSH4 0x389D78F1 EQ PUSH2 0xA2 JUMPI DUP1 PUSH4 0x3C2D48D2 EQ PUSH2 0xD5 JUMPI DUP1 PUSH4 0x5462870D EQ PUSH2 0xDE JUMPI JUMPDEST PUSH1 0x0 DUP1 REVERT JUMPDEST PUSH2 0xA0 PUSH2 0x9B CALLDATASIZE PUSH1 0x4 PUSH2 0x3EE JUMP JUMPDEST PUSH2 0x175 JUMP JUMPDEST STOP JUMPDEST PUSH2 0xC2 PUSH2 0xB0 CALLDATASIZE PUSH1 0x4 PUSH2 0x3EE JUMP JUMPDEST PUSH1 0x1 PUSH1 0x20 MSTORE PUSH1 0x0 SWAP1 DUP2 MSTORE PUSH1 0x40 SWAP1 KECCAK256 SLOAD DUP2 JUMP JUMPDEST PUSH1 0x40 MLOAD SWAP1 DUP2 MSTORE PUSH1 0x20 ADD JUMPDEST PUSH1 0x40 MLOAD DUP1 SWAP2 SUB SWAP1 RETURN JUMPDEST PUSH2 0xC2 PUSH1 0x2 SLOAD DUP2 JUMP JUMPDEST PUSH1 0x3 SLOAD PUSH2 0xF1 SWAP1 PUSH1 0x1 PUSH1 0x1 PUSH1 0xA0 SHL SUB AND DUP2 JUMP JUMPDEST PUSH1 0x40 MLOAD PUSH1 0x1 PUSH1 0x1 PUSH1 0xA0 SHL SUB SWAP1 SWAP2 AND DUP2 MSTORE PUSH1 0x20 ADD PUSH2 0xCC JUMP JUMPDEST PUSH2 0xA0 PUSH2 0x117 CALLDATASIZE PUSH1 0x4 PUSH2 0x410 JUMP JUMPDEST PUSH2 0x20B JUMP JUMPDEST PUSH2 0x13F PUSH2 0x12A CALLDATASIZE PUSH1 0x4 PUSH2 0x3EE JUMP JUMPDEST PUSH1 0x0 PUSH1 0x20 DUP2 SWAP1 MSTORE SWAP1 DUP2 MSTORE PUSH1 0x40 SWAP1 KECCAK256 SLOAD PUSH1 0xFF AND DUP2 JUMP JUMPDEST PUSH1 0x40 MLOAD SWAP1 ISZERO ISZERO DUP2 MSTORE PUSH1 0x20 ADD PUSH2 0xCC JUMP JUMPDEST PUSH2 0xA0 PUSH2 0x15D CALLDATASIZE PUSH1 0x4 PUSH2 0x410 JUMP JUMPDEST PUSH2 0x305 JUMP JUMPDEST PUSH2 0xA0 PUSH2 0x170 CALLDATASIZE PUSH1 0x4 PUSH2 0x43A JUMP JUMPDEST PUSH2 0x3A9 JUMP JUMPDEST PUSH1 0x3 SLOAD PUSH1 0x1 PUSH1 0x1 PUSH1 0xA0 SHL SUB AND CALLER EQ PUSH2 0x18C JUMPI PUSH1 0x0 DUP1 REVERT JUMPDEST PUSH1 0x1 PUSH1 0x1 PUSH1 0xA0 SHL SUB DUP2 AND PUSH1 0x0 SWAP1 DUP2 MSTORE PUSH1 0x20 DUP2 DUP2 MSTORE PUSH1 0x40 DUP1 DUP4 KECCAK256 DUP1 SLOAD PUSH1 0xFF NOT AND SWAP1 SSTORE PUSH1 0x1 SWAP1 SWAP2 MSTORE SWAP1 KECCAK256 SLOAD ISZERO PUSH2 0x1D4 JUMPI PUSH1 0x1 PUSH1 0x1 PUSH1 0xA0 SHL SUB DUP2 AND PUSH1 0x0 SWAP1 DUP2 MSTORE PUSH1 0x1 PUSH1 0x20 MSTORE PUSH1 0x40 DUP2 KECCAK256 SSTORE JUMPDEST PUSH1 0x40 MLOAD PUSH1 0x1 PUSH1 0x1 PUSH1 0xA0 SHL SUB DUP3 AND SWAP1 PUSH32 0xCDD2E9B91A56913D370075169CEFA1602BA36BE5301664F752192BB1709DF757 SWAP1 PUSH1 0x0 SWAP1 LOG2 POP JUMP JUMPDEST PUSH1 0x3 SLOAD PUSH1 0x1 PUSH1 0x1 PUSH1 0xA0 SHL SUB AND CALLER EQ PUSH2 0x222 JUMPI PUSH1 0x0 DUP1 REVERT JUMPDEST PUSH1 0x1 PUSH1 0x1 PUSH1 0xA0 SHL SUB DUP3 AND PUSH1 0x0 SWAP1 DUP2 MSTORE PUSH1 0x20 DUP2 SWAP1 MSTORE PUSH1 0x40 SWAP1 KECCAK256 SLOAD PUSH1 0xFF AND ISZERO ISZERO PUSH1 0x1 EQ PUSH2 0x2A7 JUMPI PUSH1 0x40 MLOAD PUSH3 0x461BCD PUSH1 0xE5 SHL DUP2 MSTORE PUSH1 0x20 PUSH1 0x4 DUP3 ADD MSTORE PUSH1 0x2B PUSH1 0x24 DUP3 ADD MSTORE PUSH32 0x57686974656C69737420646F6573206E6F7420636F6E7461696E2070726F7669 PUSH1 0x44 DUP3 ADD MSTORE PUSH11 0x6465642061646472657373 PUSH1 0xA8 SHL PUSH1 0x64 DUP3 ADD MSTORE PUSH1 0x84 ADD PUSH1 0x40 MLOAD DUP1 SWAP2 SUB SWAP1 REVERT JUMPDEST PUSH1 0x1 PUSH1 0x1 PUSH1 0xA0 SHL SUB DUP3 AND PUSH1 0x0 DUP2 DUP2 MSTORE PUSH1 0x1 PUSH1 0x20 SWAP1 DUP2 MSTORE PUSH1 0x40 SWAP2 DUP3 SWAP1 KECCAK256 DUP1 SLOAD SWAP1 DUP6 SWAP1 SSTORE DUP3 MLOAD DUP2 DUP2 MSTORE SWAP2 DUP3 ADD DUP6 SWAP1 MSTORE SWAP3 SWAP2 PUSH31 0x97F043A36B6F38F6336741A5CABFADABD02D0BA3C0308E608DF91D61D59DDA SWAP2 ADD PUSH1 0x40 MLOAD DUP1 SWAP2 SUB SWAP1 LOG2 POP POP POP JUMP JUMPDEST PUSH1 0x3 SLOAD PUSH1 0x1 PUSH1 0x1 PUSH1 0xA0 SHL SUB AND CALLER EQ PUSH2 0x31C JUMPI PUSH1 0x0 DUP1 REVERT JUMPDEST PUSH1 0x1 PUSH1 0x1 PUSH1 0xA0 SHL SUB DUP3 AND PUSH1 0x0 SWAP1 DUP2 MSTORE PUSH1 0x20 DUP2 SWAP1 MSTORE PUSH1 0x40 SWAP1 KECCAK256 DUP1 SLOAD PUSH1 0xFF NOT AND PUSH1 0x1 OR SWAP1 SSTORE DUP1 ISZERO DUP1 ISZERO SWAP1 PUSH2 0x350 JUMPI POP PUSH1 0x2 SLOAD DUP2 EQ ISZERO JUMPDEST ISZERO PUSH2 0x371 JUMPI PUSH1 0x1 PUSH1 0x1 PUSH1 0xA0 SHL SUB DUP3 AND PUSH1 0x0 SWAP1 DUP2 MSTORE PUSH1 0x1 PUSH1 0x20 MSTORE PUSH1 0x40 SWAP1 KECCAK256 DUP2 SWAP1 SSTORE JUMPDEST PUSH1 0x40 MLOAD PUSH1 0x1 PUSH1 0x1 PUSH1 0xA0 SHL SUB DUP4 AND SWAP1 PUSH32 0xA850AE9193F515CBAE8D35E8925BD2BE26627FC91BCE650B8652ED254E9CAB03 SWAP1 PUSH1 0x0 SWAP1 LOG2 POP POP JUMP JUMPDEST PUSH1 0x3 SLOAD PUSH1 0x1 PUSH1 0x1 PUSH1 0xA0 SHL SUB AND CALLER EQ PUSH2 0x3C0 JUMPI PUSH1 0x0 DUP1 REVERT JUMPDEST PUSH1 0x0 DUP2 GT PUSH2 0x3CD JUMPI PUSH1 0x0 DUP1 REVERT JUMPDEST PUSH1 0x2 SSTORE JUMP JUMPDEST DUP1 CALLDATALOAD PUSH1 0x1 PUSH1 0x1 PUSH1 0xA0 SHL SUB DUP2 AND DUP2 EQ PUSH2 0x3E9 JUMPI PUSH1 0x0 DUP1 REVERT JUMPDEST SWAP2 SWAP1 POP JUMP JUMPDEST PUSH1 0x0 PUSH1 0x20 DUP3 DUP5 SUB SLT ISZERO PUSH2 0x400 JUMPI PUSH1 0x0 DUP1 REVERT JUMPDEST PUSH2 0x409 DUP3 PUSH2 0x3D2 JUMP JUMPDEST SWAP4 SWAP3 POP POP POP JUMP JUMPDEST PUSH1 0x0 DUP1 PUSH1 0x40 DUP4 DUP6 SUB SLT ISZERO PUSH2 0x423 JUMPI PUSH1 0x0 DUP1 REVERT JUMPDEST PUSH2 0x42C DUP4 PUSH2 0x3D2 JUMP JUMPDEST SWAP5 PUSH1 0x20 SWAP4 SWAP1 SWAP4 ADD CALLDATALOAD SWAP4 POP POP POP JUMP JUMPDEST PUSH1 0x0 PUSH1 0x20 DUP3 DUP5 SUB SLT ISZERO PUSH2 0x44C JUMPI PUSH1 0x0 DUP1 REVERT JUMPDEST POP CALLDATALOAD SWAP2 SWAP1 POP JUMP INVALID LOG2 PUSH5 0x6970667358 0x22 SLT KECCAK256 TIMESTAMP NUMBER BASEFEE 0xE0 PUSH22 0x1935D3FCDA0E484AB2CEE507BEF22A5FF8CC1538209A 0xB3 MSIZE DUP16 MLOAD PUSH5 0x64736F6C63 NUMBER STOP ADDMOD 0xE STOP CALLER ",
  "sha1": "8f65145f9033aa9cc18279090719474db846250d",
  "source": "// SPDX-License-Identifier: MIT\n\npragma solidity ^0.8.7;\n\ncontract Whitelist {\n\n    mapping (address => bool)    public whitelist;\n    mapping (address => uint256) public allocationSizes;\n\n    uint256 public defaultAllocationSize;\n    address public multisigAddress;\n\n    event AddedToWhitelist(address indexed account);\n    event RemovedFromWhitelist(address indexed account);\n    event ChangedMaxAllocationSize(\n        address indexed account, \n        uint256 oldMaxAllocationSize, \n        uint256 newMaxAllocationSize);\n\n    constructor(address multisigAddress_) {\n        multisigAddress = multisigAddress_;\n    }\n\n    modifier multisig {\n        require(msg.sender == multisigAddress);\n        _;\n    }\n\n    function add(address address_, uint256 allocationSize_) public multisig {\n        whitelist[address_] = true;\n        if (allocationSize_ != 0 && allocationSize_ != defaultAllocationSize) {\n            allocationSizes[address_] = allocationSize_;\n        }\n\n        emit AddedToWhitelist(address_);\n    }\n\n    function remove(address address_) public multisig {\n        delete whitelist[address_];\n        if (allocationSizes[address_] != 0) {\n            delete allocationSizes[address_];\n        }\n        \n        emit RemovedFromWhitelist(address_);\n    }\n\n    function changeAllocationSize(address address_, uint256 newMaxAllocationSize_) public multisig {\n        require(whitelist[address_] == true, \"Whitelist does not contain provided address\");\n        \n        uint256 oldMaxAllocationSize = allocationSizes[address_];\n        allocationSizes[address_] = newMaxAllocationSize_;\n\n        emit ChangedMaxAllocationSize(address_, oldMaxAllocationSize, newMaxAllocationSize_);\n    }\n\n    function setDefaultAllocationSize(uint256 allocationSize_) public multisig {\n        require(allocationSize_ > 0);\n\n        defaultAllocationSize = allocationSize_;\n    }\n}",
  "sourcePath": "contracts/Whitelist.sol",
  "type": "contract"
}